:100000000C943E000C9448000C9448000C9448005A
:100010000C9448000C9461000C9448000C94480027
:100020000C9448000C9448000C9448000C94480030
:100030000C9448000C9448000C9448000C94480020
:100040000C9448000C9448000C9448000C94480010
:100050000C9448000C9448000C9448000C94480000
:100060000C9448000C9448000C9448000C944800F0
:100070000C9448000C9448000C94480011241FBEB6
:10008000CFEFD8E0DEBFCDBF0E944A000C948200C3
:100090000C940000CF93DF9300D0CDB7DEB780EF94
:1000A00084B98CE38AB982E0809368008FE0809302
:1000B0006C00789483B1898389B18A8380EF85B994
:1000C000F9CF1F920F920FB60F9211242F938F9397
:1000D0009F932FEF80E792E0215080409040E1F71E
:1000E00000C00000189B03C08CE38BB903C08BB128
:1000F000837C8BB99F918F912F910F900FBE0F90A2
:080100001F901895F894FFCF41
:00000001FF
