:100000000C943E000C945B000C945B000C945B0021
:100010000C945B000C945B000C945B000C945B00F4
:100020000C945B000C945B000C945B000C945B00E4
:100030000C945B000C945B000C945B000C945B00D4
:100040000C945B000C945B000C945B000C945B00C4
:100050000C945B000C945B000C945B000C945B00B4
:100060000C945B000C945B000C945B000C945B00A4
:100070000C945B000C945B000C945B0011241FBE7D
:10008000CFEFD8E0DEBFCDBF11E0A0E0B1E0E4ECFF
:10009000FEE002C005900D92A630B107D9F721E02D
:1000A000A6E0B1E001C01D92A131B207E1F70E94C4
:1000B00072000C9460070C9400006CE180E00E94D8
:1000C000AD0242E360E080E00E94400460EA81EB20
:1000D0000E9484006FE480E10E94840081E00E941D
:1000E0005E0408950E94980060E876E988E990E04F
:1000F0000E945D0080E090E0089520E042E0BC01B5
:1001000080E60E94C8040895CF93DF9300D0CDB756
:10011000DEB789836A8320E042E0BE016F5F7F4FD4
:1001200080E60E94C8040F900F90DF91CF91089550
:100130006FEF83E00E94840060E880E10E94840009
:1001400060E881E10E94840060E882E10E9484000E
:1001500060E883E10E94840060E884E10E948400FA
:1001600060E885E10E94840060E886E10E948400E6
:1001700060E887E10E9484006091000187EB0E94A3
:10018000840010920F0110920B0110920C0110923A
:100190000D0110920E0110920A01109206011092A8
:1001A0000701109208011092090181E0809310016B
:1001B00080E090E008952F923F924F925F926F926D
:1001C0007F928F929F92AF92BF92CF92DF92EF92E7
:1001D000FF920F931F93CF93DF93CDB7DEB72D9789
:1001E0000FB6F894DEBF0FBECDBF909110019923DA
:1001F00009F48CC191EF960F9C3408F08AC1E11488
:10020000F1040105110509F487C12115310590E1BB
:100210004907510508F083C1E114F10490E1090791
:10022000110508F07FC16701780149015A016D8706
:10023000182F232B242B252B99F4462E512C24E008
:10024000421A51085694542C442457944794052C30
:10025000000C6608770889829A82AB82BC8280C0D3
:100260004D8530E8439F10011124C501B4010E945F
:100270000D062B013C01C701B6010E940D066983E2
:100280007A838B839C839B01AC01C301B2010E94E2
:100290006C0520E030E040E053E40E94F3060E9449
:1002A0004A066D837E838F839887B101072E000CE9
:1002B000880B990B0E940F062D813E814F81588536
:1002C0000E94000520E030E040E054E40E94FF047A
:1002D0000E94DE052B013C01D501C401880F991F46
:1002E000AA1FBB1F880F991FAA1FBB1F880F991F2A
:1002F000AA1FBB1F880F991FAA1FBB1F880F991F1A
:10030000AA1FBB1F880F991FAA1FBB1F9C01AD010D
:10031000220F331F441F551F29873A874B875C875D
:100320002D813E814F81588569817A818B819C81A5
:100330000E94F30669837A838B839C8369857A851F
:100340008B859C850E940D0629813A814B815C81B9
:100350000E94FF040E94DE0569837A838B839C835D
:10036000111103C03AE13D8302C042E24D836D2D7D
:100370008D810E9484006C2D8D818F5F0E9484008E
:10038000D301C20188279927A370BB27BD01882705
:1003900099278D818E5F0E948400652D8D818D5FF0
:1003A0000E948400642D8D818C5F0E948400D7019F
:1003B000C60188279927AF70BB27072E7CE0B6952A
:1003C000A795979587957A95D1F7702D49815A8190
:1003D0006B817C81442755276F707727682B8D812F
:1003E0008B5F0E9484005A81652F8D818A5F0E94F5
:1003F000840069818D81895F0E94840060EA81EBBD
:100400000E948400111141C06091010170910201AC
:1004100080910301909104010E940D062B013C0183
:10042000C501B4010E940D064B015C01C701B60174
:100430000E940D069B01AC01C501B4010E946C0530
:100440006B017C012D85622F70E080E090E00E94BE
:100450000F06A70196010E9400059B01AC01C30194
:10046000B2010E94F30621E020930F010E944A0688
:100470000E94DE0560930B0170930C0180930D01C7
:1004800090930E0180E090E04FC060910101709167
:10049000020180910301909104010E940D062B013D
:1004A0003C01C501B4010E940D064B015C01C7016E
:1004B000B6010E940D069B01AC01C501B4010E946A
:1004C0006C056B017C013D85632F70E080E090E05E
:1004D0000E940F06A70196010E9400059B01AC0136
:1004E000C301B2010E94F30621E020930A010E9499
:1004F0004A060E94DE05609306017093070180930F
:1005000008019093090180E090E00EC085E090E042
:100510000BC084E090E008C084E090E005C084E077
:1005200090E002C084E090E02D960FB6F894DEBF14
:100530000FBECDBFDF91CF911F910F91FF90EF9034
:10054000DF90CF90BF90AF909F908F907F906F90F3
:100550005F904F903F902F900895EF92FF920F93EE
:100560001F93E12CF12C8701E39420E030E0A901F6
:100570000E94DB001F910F91FF90EF9008954F9222
:100580005F926F927F928F929F92AF92BF92CF9223
:10059000DF92EF92FF920F931F93CF93DF93CDB72C
:1005A000DEB765970FB6F894DEBF0FBECDBF909152
:1005B0001001992309F436C1833008F036C1243084
:1005C00031054105510508F433C1213098E0390760
:1005D0004105510508F02FC1A114B104C104D10493
:1005E00009F42CC1E114F104A0E10A07110508F097
:1005F00028C1A114B104B0E1CB06D10408F024C194
:10060000AA86BB86CC86DD864701580129013A01BE
:10061000062F182F81149104A104B104A1F46901DB
:100620007A0124E0C21AD108E1082EEFF20A689498
:1006300016F8CC0CDD1CEE1CFF1C1694D1F760E004
:1006400070E0CB018DC08A859B85AC85BD85019707
:10065000A105B10529F569017A01C80CD91CEA1C6C
:10066000FB1C94E0C91AD108E1089EEFF90A6894CE
:1006700016F8CC0CDD1CEE1CFF1C1694D1F7B5014E
:10068000A4014150510961097E4FCB01BA01689420
:1006900016F8660F771F881F991F1694D1F760C050
:1006A000C501B4010E940D066B017C016A857B8542
:1006B0008C859D850E940D066E877F87888B998B20
:1006C0009B01AC01C701B6010E946C0520E030E03F
:1006D00040E053E40E94F3060E944A066A8B7B8B3B
:1006E0008C8B9D8BC301B201689416F8660F771F3F
:1006F000881F991F1694D1F70E940D062A893B89FD
:100700004C895D890E94000520E030E040E054E41F
:100710000E94FF040E94DE056B017C012A893B894F
:100720004C895D896E857F85888999890E94F30649
:100730006E877F87888B998BC501B401689416F802
:10074000660F771F881F991F1694D1F70E940D0618
:100750002E853F85488959890E94FF040E94DE0545
:10076000113029F040F0123021F020E005C022E3E2
:1007700003C02AE301C02AE22983AB85AA83BA8594
:10078000BB83A70196012227332743705527442AAC
:100790004C82DD82CE82CA84DB84EC84FD84CC244E
:1007A000DD242FE0E222FF2426013701032E3CE066
:1007B00076946794579447943A95D1F7302D6B010E
:1007C0007C01CC24DD24AFE0EA22FF24242D2E2955
:1007D0002F837887698769E0CE0101960E947D00AA
:1007E000013011F06FE001C06FE289288A288B2860
:1007F00009F46064113051F018F0123069F027C02C
:1008000080E10E94840080E090E023C081E10E94AA
:10081000840080E090E01DC082E10E94840080E0BE
:1008200090E017C085E090E014C084E090E011C033
:1008300084E090E00EC084E090E00BC084E090E0A3
:1008400008C084E090E005C084E090E002C080E051
:1008500090E065960FB6F894DEBF0FBECDBFDF9176
:10086000CF911F910F91FF90EF90DF90CF90BF90AD
:10087000AF909F908F907F906F905F904F90089572
:10088000AF92BF92CF92DF92EF92FF920F931F939E
:10089000242F30E040E050E0A12CB12C6501A3945E
:1008A000E12CF12C87010E94BF021F910F91FF9054
:1008B000EF90DF90CF90BF90AF900895909110018E
:1008C000992359F0882311F060E001C06FEF83E0B5
:1008D0000E94840080E090E0089585E090E0089513
:1008E00084EA8093BC008091BC008823E4F7809167
:1008F000B900887F883051F08091B900887F8031BD
:1009000041F08091B900887F90E0089580E090E008
:10091000089580E090E0089584E98093BC000895F4
:100920008093BB0084E88093BC008091B9008091E3
:10093000BC008823E4F7E9EBF0E080818081887FC8
:10094000883151F08091B900887F803441F08091E6
:10095000B900887F90E0089580E090E0089580E0FD
:1009600090E008958093BB0084E88093BC00809160
:10097000BC008823E4F78091B900887F883229F091
:100980008091B900887F90E0089580E090E008951C
:10099000EF92FF920F931F93CF93DF93C82F7B01AA
:1009A000142F022F0E947004009711F58091B90056
:1009B0008C2F880F0E9490040097D1F4C0E0D0E003
:1009C00009C0F701EC0FFD1F80810E94B20400975F
:1009D00079F42196812F90E0C817D90794F301117B
:1009E00005C00E948C0480E090E002C080E090E0AE
:1009F000DF91CF911F910F91FF90EF900895505884
:100A0000BB27AA270E9417050C94A1060E949306F3
:100A100038F00E949A0620F039F49F3F19F426F42A
:100A20000C9490060EF4E095E7FB0C946106E92F18
:100A30000E94B20658F3BA17620773078407950736
:100A400020F079F4A6F50C94EC060EF4E0950B2E4C
:100A5000BA2FA02D0B01B90190010C01CA01A00110
:100A60001124FF27591B99F0593F50F4503E68F16B
:100A70001A16F040A22F232F342F4427585FF3CFAC
:100A8000469537952795A795F0405395C9F77EF47D
:100A90001F16BA0B620B730B840BBAF09150A1F0C6
:100AA000FF0FBB1F661F771F881FC2F70EC0BA0F4C
:100AB000621F731F841F48F4879577956795B795D4
:100AC000F7959E3F08F0B0CF9395880F08F09927CF
:100AD000EE0F9795879508950E9480050C94A106C6
:100AE0000E949A0658F00E94930640F029F45F3F56
:100AF00029F00C94610651110C94ED060C949006AB
:100B00000E94B20668F39923B1F3552391F3951B24
:100B1000550BBB27AA2762177307840738F09F5F1E
:100B20005F4F220F331F441FAA1FA9F335D00E2E8B
:100B30003AF0E0E832D091505040E695001CCAF7F8
:100B40002BD0FE2F29D0660F771F881FBB1F2617BB
:100B500037074807AB07B0E809F0BB0B802DBF0192
:100B6000FF2793585F4F3AF09E3F510578F00C9461
:100B700061060C94ED065F3FE4F3983ED4F386954E
:100B800077956795B795F7959F5FC9F7880F911D82
:100B90009695879597F90895E1E0660F771F881F6E
:100BA000BB1F621773078407BA0720F0621B730B21
:100BB000840BBA0BEE1F88F7E09508950E94BA06E1
:100BC00088F09F5798F0B92F9927B751B0F0E1F00E
:100BD000660F771F881F991F1AF0BA95C9F714C0BE
:100BE000B13091F00E94EC06B1E008950C94EC064F
:100BF000672F782F8827B85F39F0B93FCCF38695F7
:100C000077956795B395D9F73EF490958095709553
:100C100061957F4F8F4F9F4F0895E89409C097FBD0
:100C20003EF490958095709561957F4F8F4F9F4FC3
:100C30009923A9F0F92F96E9BB279395F695879507
:100C400077956795B795F111F8CFFAF4BB0F11F4CA
:100C500060FF1BC06F5F7F4F8F4F9F4F16C0882371
:100C600011F096E911C0772321F09EE8872F762FA7
:100C700005C0662371F096E8862F70E060E02AF0E8
:100C80009A95660F771F881FDAF7880F96958795D4
:100C900097F908950E94D40690F09F3748F4911177
:100CA00016F00C94ED0660E070E080E89FEB08958C
:100CB00026F41B16611D711D811D0C9467060C9492
:100CC000820697F99F6780E870E060E008958823C6
:100CD00071F4772321F09850872B762F07C0662375
:100CE00011F499270DC09051862B70E060E02AF036
:100CF0009A95660F771F881FDAF7880F9695879564
:100D000097F908959F3F31F0915020F4879577959A
:100D10006795B795880F911D9695879597F90895D2
:100D20009FEF80EC089500240A9416161706180603
:100D30000906089500240A941216130614060506DF
:100D40000895092E0394000C11F4882352F0BB0F70
:100D500040F4BF2B11F460FF04C06F5F7F4F8F4FD3
:100D60009F4F089557FD9058440F551F59F05F3F0E
:100D700071F04795880F97FB991F61F09F3F79F0BD
:100D800087950895121613061406551FF2CF46953F
:100D9000F1DF08C0161617061806991FF1CF8695C1
:100DA00071056105089408950E94BA06A0F0BEE797
:100DB000B91788F4BB279F3860F41616B11D672F4A
:100DC000782F8827985FF7CF869577956795B11D1F
:100DD00093959639C8F30895E894BB27662777273B
:100DE000CB0197F908950E9406070C94A1060E9472
:100DF000930638F00E949A0620F0952311F00C9487
:100E000061060C94900611240C94ED060E94B20623
:100E100070F3959FC1F3950F50E0551F629FF0014D
:100E2000729FBB27F00DB11D639FAA27F00DB11D66
:100E3000AA1F649F6627B00DA11D661F829F2227EF
:100E4000B00DA11D621F739FB00DA11D621F839F76
:100E5000A00D611D221F749F3327A00D611D231F4C
:100E6000849F600D211D822F762F6A2F11249F579A
:100E700050409AF0F1F088234AF0EE0FFF1FBB1F9D
:100E8000661F771F881F91505040A9F79E3F51055C
:100E900080F00C9461060C94ED065F3FE4F3983EFD
:100EA000D4F3869577956795B795F795E7959F5F06
:100EB000C1F7FE2B880F911D9695879597F9089598
:040EC000F894FFCFD4
:060EC400C040787D010032
:00000001FF
