:100000000C943E000C945B000C945B000C945B0021
:100010000C945B000C9467020C945B000C945B00E6
:100020000C945B000C945B000C945B000C945B00E4
:100030000C945B000C945B000C945B000C945B00D4
:100040000C945B000C945B000C945B000C945B00C4
:100050000C945B000C945B000C945B000C945B00B4
:100060000C945B000C945B000C945B000C945B00A4
:100070000C945B000C945B000C945B0011241FBE7D
:10008000CFEFD8E0DEBFCDBF12E0A0E0B1E0EEE8F8
:10009000FDE002C005900D92A630B107D9F722E02D
:1000A000A6E0B2E001C01D92A537B207E1F70E94B9
:1000B0007E010C94C5060C9400001092B8000895BF
:1000C00084EA8093BC008091BC008823E4F780918F
:1000D000B900887F883041F088EC91E09F938F933E
:1000E0000E94D7030F900F90089584E98093BC007D
:1000F00008958093BB0084E88093BC008091BC008D
:100100008823E4F78091B900887F803241F081EE46
:1001100091E09F938F930E94D7030F900F900895C3
:10012000CF93DF93D82FC62F0E9460008D2F0E949F
:10013000790080E00E9479008C2F0E9479000E9453
:100140007500DF91CF910895CF93DF93D82FC62FFD
:100150000E9460008D2F0E94790080E40E94790047
:100160008C2F0E9479000E947500DF91CF91089535
:10017000AF92BF92CF92DF92EF92FF920F931F93B5
:10018000CF93DF936C01B62EA72E88E70E949000D4
:10019000EB2CFA2CC0E0D0E021C02097C9F0CE01B2
:1001A0006AE070E00E944E03892B91F480EEE8161D
:1001B000F10439F461E088E70E949000EB2CFA2CFE
:1001C00003C0E0E2EE0EF11C6E2D88E70E94900065
:1001D000F801608188E70E94A400219686010C0F37
:1001E0001D1FF80180818111D8CFDF91CF911F9120
:1001F0000F91FF90EF90DF90CF90BF90AF90089558
:100200008130910599F46130710509F444C0623080
:10021000710509F443C06430710509F442C06830C7
:10022000710509F041C08AE090E00895823091059F
:1002300079F461307105D9F162307105D9F164301A
:100240007105D9F168307105D9F58BE090E008951A
:100250008430910579F461307105A9F1623071053E
:10026000A9F164307105A9F168307105A9F58CE038
:1002700090E00895089799F56130710599F1623021
:10028000710599F16430710599F16830710599F53E
:100290008DE090E0089581E090E0089582E090E0A4
:1002A000089583E090E0089580E190E0089584E06F
:1002B00090E0089585E090E0089586E090E008954C
:1002C00080E190E0089587E090E0089588E090E074
:1002D000089589E090E0089580E190E0089580E13C
:1002E00090E008958FE090E0089580E090E0089518
:1002F0008EE090E0089580E190E00895CF93DF9341
:10030000CDB7DEB7C65CD1090FB6F894DEBF0FBE1D
:10031000CDBF8FEF81B98FE097E20197F1F700C071
:10032000000082B182B99FEFA1EEB4E09150A040ED
:10033000B040E1F700C0000082B1816082B98FE077
:1003400097E20197F1F700C000000E945D0061E0B4
:1003500088E70E9490006AE388E70E94900069E0C5
:1003600088E70E94900066E088E70E9490006EE1B6
:1003700088E70E94900069E388E70E9490006BE1A3
:1003800088E70E9490006EE688E70E94900067E58B
:1003900088E70E9490006AE788E70E94900068E37F
:1003A00088E70E9490006FE088E70E94900061E07B
:1003B00088E70E94900080EF84B98CE38AB982E0DC
:1003C000809368008FE080936C00789480EF85B90B
:1003D0008091000190910101892BC1F361E088E7D0
:1003E0000E94900080910A0290910B02892B39F0B3
:1003F00060EE70E08CE092E00E94B80031C08E01A7
:100400000C591F4F87E0E2E0F1E0D80101900D9216
:100410008A95E1F7F80137968CE5DF011D928A9500
:10042000E9F74AE050E0BE016F5F7F4F809108021C
:10043000909109020E949F03BE016F5F7F4FC80128
:100440000E949403F80101900020E9F731978DE4B0
:1004500090E09183808360E870E0C8010E94B8005A
:1004600087E0E5E6F1E0DE01119601900D928A95B4
:10047000E1F7FE0138968CE5DF011D928A95E9F7D8
:100480008091060290910702892B59F037970190CD
:100490000020E9F7319784E598E591838083128203
:1004A0000BC0FE01319601900020E9F7319782E5FB
:1004B00098E591838083128260EA70E0CE01019614
:1004C0000E94B80010920101109200017FCF1F928C
:1004D0000F920FB60F9211240F931F932F933F93F8
:1004E0004F935F936F937F938F939F93AF93BF933C
:1004F000EF93FF93CF93DF93CDB7DEB72A97DEBF9D
:10050000CDBF2FEF39EF40E0215030404040E1F7C0
:1005100000C0000083B18F7021F48BB1837C8BB954
:10052000A2C083B18F7090E02FE024B925B92FEFDE
:1005300039EF40E0215030404040E1F700C000007A
:1005400023B1207F49F480EF84B985B1806F85B9EC
:100550008BB1837C8BB987C063B162956F7070E09B
:100560000E9400018C018A30910594F580910A0265
:1005700090910B02892BB1F44AE050E0BE016F5F0D
:100580007F4FC8010E949F03BE016F5F7F4F8CE0C9
:1005900092E00E94940381E090E090930B0280939C
:1005A0000A020FC04AE050E0BE016F5F7F4FC801F2
:1005B0000E949F03BE016F5F7F4F8CE092E00E941C
:1005C000940381E090E090930101809300013EC08C
:1005D0008D30910569F410920B0210920A0210926C
:1005E0000C0281E090E090930101809300012EC005
:1005F0008C309105A9F410920B0210920A028CE043
:1006000092E00E9476039093090280930802109270
:100610000C0281E090E0909301018093000116C0EC
:100620000B97A1F481E090E020910602309107023F
:10063000232B11F080E090E0909307028093060254
:1006400081E090E090930101809300018BB1000F55
:10065000111F000F111F837C082B0BB980EF84B989
:1006600085B1806F85B92A960FB6F894DEBF0FBEAC
:10067000CDBFDF91CF91FF91EF91BF91AF919F914E
:100680008F917F916F915F914F913F912F911F912A
:100690000F910F900FBE0F901F90189597FB072E8C
:1006A00016F4009407D077FD09D00E94620307FC7E
:1006B00005D03EF4909581959F4F08957095619572
:1006C0007F4F0895AA1BBB1B51E107C0AA1FBB1F88
:1006D000A617B70710F0A61BB70B881F991F5A95CE
:1006E000A9F780959095BC01CD010895FC0188275C
:1006F0009927E89421912032E9F3293010F02E3027
:10070000C8F32B3241F02D3239F4689404C00E94B2
:10071000B503820F911D219120532A30C0F31EF49E
:10072000909581959F4F0895FB01DC010D9000206D
:10073000E9F7119701900D920020E1F708954532F5
:10074000510520F4423010F00C94AA03FB011082F2
:10075000CB010895BB274A3031F4992322F4BDE23E
:10076000909581959F4F0C94BE037AE0979F902DB2
:10077000879F802D910D11240895BB27FB015527DC
:10078000AA27880F991FAA1FA41710F0A41B8395EE
:100790005051B9F7A05DAA3308F0A95DA193009765
:1007A00079F7B111B1931192CB010C94E405A0E05B
:1007B000B0E0EDEDF3E00C949E06AE014B5F5F4FB1
:1007C000FA0161917191AF01809171029091720271
:1007D0000E94ED03E2E00C94BA06ABE0B0E0E3EF78
:1007E000F3E00C948E066C017B018A01FC011782F8
:1007F0001682838181FFCCC1CE0101963C01F601B6
:100800009381F70193FD859193FF81917F01882367
:1008100009F4BAC1853239F493FD859193FF819132
:100820007F01853229F4B60190E00E94F405E7CFFC
:10083000912C212C312CFFE1F315D8F08B3279F07B
:1008400038F4803279F08332A1F4232D20611DC069
:100850008D3261F0803369F4232D216016C0832D21
:100860008260382EE32DE4603E2E2AC0F32DF8601E
:100870001DC037FC2DC020ED280F2A3040F08E32ED
:10088000B9F436FC81C1232D2064322E19C036FE06
:1008900006C08AE0989E200D1124922E11C0EAE035
:1008A0002E9E200D1124222EF32DF0623F2E08C023
:1008B0008C3621F4832D8068382E02C0883641F4AE
:1008C000F70193FD859193FF81917F018111B3CF52
:1008D000982F9F7D9554933028F40C5F1F4F9FE312
:1008E00099830DC0833631F0833771F0833509F079
:1008F00059C021C0F801808189830E5F1F4F882471
:100900008394912C530113C02801F2E04F0E511C27
:10091000F801A080B18036FE03C0692D70E002C0EE
:100920006FEF7FEFC5010E94D9054C018201F32DC5
:10093000FF773F2E16C0280122E0420E511CF8011D
:10094000A080B18036FE03C0692D70E002C06FEF59
:100950007FEFC5010E94CE054C01F32DF0683F2EBC
:10096000820133FC1BC0822D90E088169906B0F4FA
:10097000B60180E290E00E94F4052A94F4CFF501DC
:1009800037FC859137FE81915F01B60190E00E94AE
:10099000F40521102A9421E0821A9108811491040F
:1009A00071F7E8C0843611F0893641F5F80137FE59
:1009B00007C060817181828193810C5F1F4F08C0E5
:1009C00060817181072E000C880B990B0E5F1F4F01
:1009D000F32DFF763F2E97FF09C090958095709577
:1009E00061957F4F8F4F9F4FF0683F2E2AE030E098
:1009F000A3010E943006882E861845C0853731F441
:100A0000232D2F7EB22E2AE030E025C0932D997F32
:100A1000B92E8F36C1F018F4883579F0B5C080371B
:100A200019F0883721F0B0C0E92FE061BE2EB4FE86
:100A30000DC0FB2DF460BF2E09C034FE0AC0292F63
:100A40002660B22E06C028E030E005C020E130E08C
:100A500002C020E132E0F801B7FE07C06081718179
:100A6000828193810C5F1F4F06C06081718180E09D
:100A700090E00E5F1F4FA3010E943006882E86185B
:100A8000FB2DFF773F2E36FE0DC0232D2E7FA22E8D
:100A9000891458F434FE0BC032FC09C0832D8E7EBD
:100AA000A82E05C0B82CA32C03C0B82C01C0B92CAB
:100AB000A4FE0FC0FE01E80DF11D8081803321F4FA
:100AC0009A2D997EA92E09C0A2FE06C0B394B394B4
:100AD00004C08A2D867809F0B394A3FC11C0A0FE4F
:100AE00006C0B21488F4280C922C9B180EC0B214C5
:100AF00060F4B60180E290E00E94F405B394F7CF71
:100B0000B21418F42B1802C0982C212CA4FE10C08B
:100B1000B60180E390E00E94F405A2FE17C0A1FC9C
:100B200003C088E790E002C088E590E0B6010CC001
:100B30008A2D867859F0A1FE02C08BE201C080E2C6
:100B4000A7FC8DE2B60190E00E94F405891438F408
:100B5000B60180E390E00E94F4059A94F7CF8A945E
:100B6000F301E80DF11D8081B60190E00E94F405CB
:100B70008110F5CF222009F442CEB60180E290E048
:100B80000E94F4052A94F6CFF6018681978102C06F
:100B90008FEF9FEF2B96E2E10C94AA06FC010590E3
:100BA000615070400110D8F7809590958E0F9F1F6F
:100BB0000895FC016150704001900110D8F78095B4
:100BC00090958E0F9F1F0895DC01FC01672F719196
:100BD0007723E1F7329704C07C916D937083629123
:100BE000AE17BF07C8F308950F931F93CF93DF93FA
:100BF000FB01238121FD03C08FEF9FEF2CC022FF5B
:100C000016C046815781248135814217530744F429
:100C1000A081B1819D012F5F3F4F318320838C9351
:100C2000268137812F5F3F4F3783268314C08B0186
:100C3000EC01FB010084F185E02D0995892BE1F69B
:100C4000D80116968D919C911797019617969C93B3
:100C50008E931697CE01DF91CF911F910F9108953A
:100C6000FA01AA27283051F1203181F1E8946F93DD
:100C70006E7F6E5F7F4F8F4F9F4FAF4FB1E03ED083
:100C8000B4E03CD0670F781F891F9A1FA11D680F21
:100C9000791F8A1F911DA11D6A0F711D811D911D54
:100CA000A11D20D009F468943F912AE0269F1124C9
:100CB0003019305D3193DEF6CF010895462F47702D
:100CC000405D4193B3E00FD0C9F7F6CF462F4F7088
:100CD000405D4A3318F0495D31FD4052419302D0E6
:100CE000A9F7EACFB4E0A69597958795779567958C
:100CF000BA95C9F700976105710508959B01AC018C
:100D00000A2E06945795479537952795BA95C9F7B2
:100D1000620F731F841F951FA01D08952F923F928D
:100D20004F925F926F927F928F929F92AF92BF92FB
:100D3000CF92DF92EF92FF920F931F93CF93DF93A7
:100D4000CDB7DEB7CA1BDB0B0FB6F894DEBF0FBE04
:100D5000CDBF09942A88398848885F846E847D8451
:100D60008C849B84AA84B984C884DF80EE80FD8053
:100D70000C811B81AA81B981CE0FD11D0FB6F894C9
:0E0D8000DEBF0FBECDBFED010895F894FFCF8A
:100D8E000100465245513A200000000000000000CC
:100D9E000000000000000000000000000000000045
:100DAE000000000000000000000000000000000035
:100DBE000000000000000000000000000000000025
:100DCE000000000000000000000000000000000015
:100DDE000000000000000000000000000000000005
:100DEE0000000000004D4F44453A20000000000076
:100DFE0000000000000000000000000000000000E5
:100E0E0000000000000000000000000000000000D4
:100E1E0000000000000000000000000000000000C4
:100E2E0000000000000000000000000000000000B4
:100E3E0000000000000000000000000000000000A4
:100E4E000000000000000000537461727420636F94
:100E5E006E646974696F6E206E6F74206D65742197
:100E6E000053656E64696E67206461746120746FEF
:100E7E0020736C61766520756E737563636573732D
:060E8E0066756C210000F6
:00000001FF
