S01500005465616D35305F504C4C5F56322E73726563F5
S11300000C943E000C9448000C9448000C94480056
S11300100C9448000C9448000C9448000C9448003C
S11300200C9448000C9448000C9448000C9448002C
S11300300C9448000C9448000C9448000C9448001C
S11300400C9448000C9448000C9448000C9448000C
S11300500C9448000C9448000C9448000C944800FC
S11300600C9448000C9448000C9448000C944800EC
S11300700C9448000C9448000C94480011241FBEB2
S1130080CFEFD8E0DEBFCDBF0E9498000C942404CB
S11300900C94000084EA8093BC008091BC00882307
S11300A0E4F78091B900887F089584E98093BC00C7
S11300B08091BC0084FDFCCF08958093BB0084E84C
S11300C08093BC008091BC008823E4F78091B90040
S11300D0887F0895CF93DF93C82FD62F0E944A00BC
S11300E0883099F480EC0E945D00883181F48C2F73
S11300F00E945D00883269F48D2F0E945D00883271
S113010051F40E94550080E007C081E005C082E000
S113011003C083E001C084E0DF91CF9108958CE5B2
S11301208093B8001092B9008FEF8093BB000895BC
S11301300E948F0060E87FE985ED90E00E94DE0177
S1130140FFCF4F925F926F927F928F929F92AF9266
S1130150BF92CF92DF92EF92FF920F931F93CF93B0
S1130160DF9300D000D01F92CDB7DEB78D83C62EAB
S113017049015A0127013801CA01B9010E94DD026F
S113018069837A838B839C83C801B7010E94DD0253
S11301909B01AC0169817A818B819C810E943C0224
S11301A020E030E040E053E40E946B030E94AE0282
S11301B0D12CE12CF12CCC0CDD1CEE1CFF1CCC0C46
S11301C0DD1CEE1CFF1CCC0CDD1CEE1CFF1CCC0C3F
S11301D0DD1CEE1CFF1CCC0CDD1CEE1CFF1CCC0C2F
S11301E0DD1CEE1CFF1CCC0CDD1CEE1CFF1CC60E23
S11301F0D71EE81EF91E22E0D21AE108F108880C85
S1130200991CAA1CBB1C880C991CAA1CBB1C880C1E
S1130210991CAA1CBB1C880C991CAA1CBB1C880C0E
S1130220991CAA1CBB1C880C991CAA1CBB1C880CFE
S1130230991CAA1CBB1CA30192010E94D803861A14
S1130240970AA80AB90A652D8D810E946A00642D57
S11302508D818F5F0E946A00D701C6018827992784
S1130260A370BB27BD01882799278D818E5F0E94CB
S11302706A006D2D8D818D5F0E946A006C2D8D81C9
S11302808C5F0E946A00442455248FE068227724FE
S1130290032E3CE076946794579447943A95D1F7AB
S11302A0302DD501C40188279927AF70BB27642D51
S11302B06A2B8D818B5F0E946A00692D8D818A5F14
S11302C00E946A00682D8D81895F0E946A000F90E8
S11302D00F900F900F900F90DF91CF911F910F917E
S11302E0FF90EF90DF90CF90BF90AF909F908F9052
S11302F07F906F905F904F900895CF92DF92EF922E
S1130300FF92CF93DF93C82FD22F6A017B0184E041
S1130310C81AD108E1088EEFF80ACC0CDD1CEE1CDB
S1130320FF1CCC0CDD1CEE1CFF1CCC0CDD1CEE1CDD
S1130330FF1CCC0CDD1CEE1CFF1CCC0CDD1CEE1CCD
S1130340FF1CCC0CDD1CEE1CFF1CCC0CDD1CEE1CBD
S1130350FF1C60E08C2F0E946A0061E081E08C0F3A
S11303600E946A00D701C60188279927A370BB277A
S11303706D2F6A2B82E08C0F0E946A006D2D83E042
S11303808C0F0E946A006C2D84E08C0F0E946A001E
S113039060E085E08C0F0E946A0060E086E08C0FCC
S11303A00E946A0060E087E08C0F0E946A00DF917F
S11303B0CF91FF90EF90DF90CF9008958F929F920E
S11303C0AF92BF92CF92DF92EF92FF920F931F935F
S11303D06B017C0160E079EE84EA95E3A701960164
S11303E00E94E80349015A0120FF05C081E0881AF0
S11303F09108A108B108A5019401C701B6010E94A2
S1130400D80320EC3CEF4BE951E00E94E803D22EE4
S11304100E94DD0220EF3FEF4FE759E40E946B0397
S113042020E63EEF4DEC5BE40E943C020E94AE02EB
S11304309B01AC01EE24EA94FE2C0FE010E06D2D3C
S11304408AE10E94A10020E0B501A4018AE20E9491
S11304507D016CEA81EB0E946A006FE480E10E94F6
S11304606A001F910F91FF90EF90DF90CF90BF90A3
S1130470AF909F908F9008950E9450020C94310386
S11304800E942A0358F00E94230340F029F45F3F9E
S113049029F00C941A0351110C9465030C94200355
S11304A00E94420368F39923B1F3552391F3951BFA
S11304B0550BBB27AA2762177307840738F09F5F81
S11304C05F4F220F331F441FAA1FA9F335D00E2EEE
S11304D03AF0E0E832D091505040E695001CCAF75B
S11304E02BD0FE2F29D0660F771F881FBB1F26171E
S11304F037074807AB07B0E809F0BB0B802DBF01F5
S1130500FF2793585F4F3AF09E3F510578F00C94C3
S11305101A030C9465035F3FE4F3983ED4F3869585
S113052077956795B795F7959F5FC9F7880F911DE4
S11305309695879597F90895E1E0660F771F881FD0
S1130540BB1F621773078407BA0720F0621B730B83
S1130550840BBA0BEE1F88F7E09508950E944A03B6
S113056088F09F5798F0B92F9927B751B0F0E1F070
S1130570660F771F881F991F1AF0BA95C9F714C020
S1130580B13091F00E946403B1E008950C946403C7
S1130590672F782F8827B85F39F0B93FCCF3869559
S11305A077956795B395D9F73EF4909580957095B6
S11305B061957F4F8F4F9F4F0895E89409C097FB33
S11305C03EF490958095709561957F4F8F4F9F4F26
S11305D09923A9F0F92F96E9BB279395F69587956A
S11305E077956795B795F111F8CFFAF4BB0F11F42D
S11305F060FF1BC06F5F7F4F8F4F9F4F16C08823D4
S113060011F096E911C0772321F09EE8872F762F09
S113061005C0662371F096E8862F70E060E02AF04A
S11306209A95660F771F881FDAF7880F9695879536
S113063097F9089597F99F6780E870E060E008955E
S11306409FEF80EC089500240A94161617061806E6
S11306500906089500240A941216130614060506C2
S11306600895092E0394000C11F4882352F0BB0F53
S113067040F4BF2B11F460FF04C06F5F7F4F8F4FB6
S11306809F4F089557FD9058440F551F59F05F3FF1
S113069071F04795880F97FB991F61F09F3F79F0A0
S11306A087950895121613061406551FF2CF469522
S11306B0F1DF08C0161617061806991FF1CF8695A4
S11306C07105610508940895E894BB276627772788
S11306D0CB0197F908950E947E030C9431030E9484
S11306E0230338F00E942A0320F0952311F00C9480
S11306F01A030C94200311240C9465030E944203F2
S113070070F3959FC1F3950F50E0551F629FF00160
S1130710729FBB27F00DB11D639FAA27F00DB11D79
S1130720AA1F649F6627B00DA11D661F829F222702
S1130730B00DA11D621F739FB00DA11D621F839F89
S1130740A00D611D221F749F3327A00D611D231F5F
S1130750849F600D211D822F762F6A2F11249F57AD
S113076050409AF0F1F088234AF0EE0FFF1FBB1FB0
S1130770661F771F881F91505040A9F79E3F51056F
S113078080F00C941A030C9465035F3FE4F3983EE5
S1130790D4F3869577956795B795F795E7959F5F19
S11307A0C1F7FE2B880F911D9695879597F90895AB
S11307B0DB018F939F930E940A04BF91AF91A29F84
S11307C0800D911DA39F900DB29F900D112408954B
S11307D0A1E21A2EAA1BBB1BFD010DC0AA1FBB1F41
S11307E0EE1FFF1FA217B307E407F50720F0A21BB3
S11307F0B30BE40BF50B661F771F881F991F1A9420
S113080069F760957095809590959B01AC01BD0149
S1130810CF0108950E941504A59F900DB49F900DDB
S1130820A49F800D911D11240895A29FB001B39F30
S1130830C001A39F700D811D1124911DB29F700DE5
S10F0840811D1124911D0895F894FFCF30
S9030000FC
